:0300000002298B47
:0C298B00787FE4F6D8FD75818D0229D21A
:1031BF00C297D294D2958FA0C29600D296D297C2C0
:0231CF00942248
:1031D100C297C294D2958FA0C29600D296D297D2AE
:0231E100942236
:10306500AB28AA29A92AAF3305338F8275830012AD
:053075000B3BFD7FC0D4
:0E307A00AE05AD07AF061231D1AF050231BF72
:1031AC00AE07AC03AF051231D1AF041231D1AF066B
:0331BC000231BF1E
:102FA400C2B77F147E001230CDD2B7E4FBFD7F4060
:102FB4001231AC7D1E7F411231AC7B08FD7F421281
:102FC40031ACFB7D1E7F431231AC7FA71231BF7F32
:0E2FD400801231BF7F921231BF7F9E0231BF4B
:10301300E4FBFD7F241231AC7FB01231BFFCE4FF2F
:103023001231D10DBD00010CE4B505F2ECB478EE1C
:0D3033007FB21231BFE4FBFD7F240231ACFF
:0A2D0C008B288A29892AAB05AA0446
:102D1600E4F533AE2DAF2EFC7D1E120B68EF2BFFB4
:102D2600EE3ACF2400CF3408FEE48F328E31F530F0
:102D3600F52FF534AD32C005AF32AE31AD30AC2F24
:102D46007808120C78AB07D0057F241231AC12300C
:102D560065123065E532241EF532E43531F531E48D
:102D66003530F530E4352FF52F0534E534C39410AE
:022D760040C259
:012D78002238
:0A2C27008B308A318932AB05AA0414
:102C3100E4F53BAE35AF36FC7D1E120B68EF2BFF82
:102C4100EE3ACF2400CF3408FEE48F3A8E39F538BE
:102C5100F537F53CAD3AC005AF3AAE39AD38AC37D2
:102C61007808120C78AB07D0057F241231ACAB3059
:102C7100AA31A932AF3B053B12306FE53A241EF56C
:102C81003AE43539F539E43538F538E43537F5378F
:092C9100053CE53CC3941040BB76
:012C9A002217
:1030CD00D3EF9400EE940040147D6E7C00ED1D70E6
:0D30DD00011CED4C70F7EF1F70E61E80E344
:0130EA0022C3
:0B322100758CA6758A68D2A9D28C2299
:03000B000228F5D3
:1028F500C0E0C0F0C083C082C0D075D000C000C0A9
:1029050001C002C003C004C005C006C007758CA67F
:10291500758A68056F0573788CE614601D1460323E
:1029250024027047E573B40506121F62757300E54E
:102935006F643C7036121952802EE573B428061266
:102945001548757300E56FB43C211211881226E114
:102955008016E573B42806121548757300E56FB443
:102965003C09120C8B1226E1756F00D007D006D0FA
:1029750005D004D003D002D001D000D0D0D082D071
:0629850083D0F0D0E03227
:0A30AB00016F0002800000018600A2
:10317B00E4F508121CBDE4FF12312712319612320E
:0B318B0036122F55AF08122AA180FE5B
:0A322C00C0F9A4B0999282F88090D6
:102FE200D290EF90322C93F5807580FFC290D291EF
:102FF200ED93F5807580FFC291D292EB93F58075C7
:1030020080FFC292D293E51893F5807580FFC29338
:01301200229B
:10319600758921758DFD758BFDD28EC29FD29ED20B
:0631A6009CD2AFD2AC2266
:0300230002325452
:09325400309805C2988599723288
:0930B500018C00018D00018B006B
:102AA1008F09E572249C602224EB603D240470F2BE
:102AB100E509AF0970081231437509028005123129
:102AC100431509AF09123127801AE509B40209FF3C
:102AD100123143E4F5098007AF091231430509AF0B
:102AE10009123127E4F57280B9E4F572E509146041
:102AF1001514601C2402702AE4788CF670081232D6
:102B010006AF09121770122C9BAF091220A5801273
:102B1100122B29E57260FCE4F572121CBDAF09129B
:082B21002AA1E4F572022AA3C7
:0D32140078827604788376387887760322F6
:101952007882E6FF7401C39F504AEFC3941050444B
:1019620006067BFF7A027946E624FEFDE434FFFC9C
:101972007883E6752D00F52E122D0C7887E624FD6E
:1019820070087BFF7A0279A680067BFF7A0279C60D
:101992007882E6FD7C007883E6752D00F52E122D07
:1019A2000C021A6A7883E6FF7401C39F504DEFC39D
:1019B20094475047740F26F67BFF7A027946788265
:1019C200E6FD7C007883E624F1F52EE434FFF52D64
:1019D200122D0C7887E624FD70087BFF7A0279A627
:1019E20080067BFF7A0279C67882E6FD7C007883E6
:1019F200E6752D00F52E122D0C806D7882E6FF74AF
:101A020001C39F5067EFC3941A506106067BFF7AA9
:101A1200027946E624FEFDE434FFFC7883E6752D68
:101A220000F52E122D0C7887E624FD70087BFF7AD4
:101A32000279A680067BFF7A0279C67882E6FD7C6F
:101A4200007883E6752D00F52E122D0C7882E6B40F
:101A52001A167884167BFF7A037926752D00752E67
:101A6200477D1A7C00122D0CE4F56F22788AE6601D
:101A72006F161232147888E6FE08E6FF7C007D6459
:101A8200120B7AAB07C003EF75F00AA4FB7888E665
:101A9200FE08E6FF7C007D0A120B7AC3EF9BFB78FF
:101AA20088E6FE08E6FF7C007D64120B7AEF75F093
:101AB20064A4FF7889E6C39FFA18E6FE08E6FF7C75
:101AC200007D0A120B7AEF75F00AA4FFC3EA9FF5B4
:101AD2002C8B2B788AE6FF7884E6FDD003022A1746
:101AE200C28C1232067884E6700D7F9C1231BF12CE
:101AF2002F0678867602227981E7788926FD19E712
:101B02001836FC7884E675F064A4AEF02D7881F680
:101B1200EE3C18F6122DE27880E6FE08E6FF787EAB
:0F1B2200A60608A6077F9C1231BF78867601229F
:1031F5008F11EDC313C454F0F5127B007A007911D9
:0132050022A6
:10118800752601788BE6FF600864026004EFB404FA
:101198000EEF75F003A42451F80606788B8033EF20
:1011A80075F003A4244EF8E6FFC3940A502B788BFD
:1011B800E675F003A4244FF8E6B4101D788BE6FE1C
:1011C80075F003A4244EF80606EE75F003A4245126
:1011D800F8060675260102138DEF640A703B788BBA
:1011E800E6FF75F003A4244FF8E6C39450502AEFA5
:1011F80075F003A42451F8E6C3940A50080606754E
:1012080026010212C3788BE675F003A42452F87401
:101218001026F6E4F5260212C3788BE6FF75F00374
:10122800A4244FF8E6FE64507045EF75F003A4243B
:101238004EF8E6D394044037788BE675F003A4247F
:1012480052F8E6C394505009741026F6E4F5268047
:101258000F788BE675F003A42451F816167526024C
:10126800788BE675F003A4244EF8161602138D78D1
:101278008BE675F003A4244EF8E66404704EEEC3C2
:1012880094504048788BE6FF75F003A4244FF8E6A5
:10129800C394705037EF75F003A42451F8E6D39443
:1012A80004400716167526028011788BE675F00340
:1012B800A42452F8741026F6E4F526788BE675F027
:1012C80003A4244FF8741026F602138D788BE6FFDA
:1012D80075F003A4244FF8E664707044EF75F003CA
:1012E800A4244EF8E6C3940C5036788BE675F003C8
:1012F800A42452F8E6C394705009741026F6E4F555
:1013080026800F788BE675F003A42451F80606753D
:101318002601788BE675F003A4244EF8060680654E
:10132800788BE6FF75F003A4244FF8E67057EF7545
:10133800F003A4244EF8E6641A704A788BE6FF7529
:10134800F003A42451F8E6FD7C007BFF7A0279467D
:10135800EF75F003A42452F8E6752D00F52E122D32
:101368000C788BE6FF75F003A42451F8761AEF7514
:10137800F003A42452F8E4F6788AE614FF788BE6A2
:10138800C39F500106E52614603314606C24026084
:1013980003021477788BE6FF75F003A42451F8E66E
:1013A800FD7C007BFF7A027946EF75F003A4245296
:1013B800F8E624F0F52EE434FFF52D8063788BE60B
:1013C80075F003A42451F8E624FEFDE434FFFC7B09
:1013D800FF7A027946788BE675F003A42452F8E682
:1013E800752D00F52E122D0C7BFF7A037946752D8D
:1013F80000752E10E4FDFC8027788BE675F003A4B9
:101408002451F8E62402FDE433FC7BFF7A02794696
:10141800788BE675F003A42452F8E6752D00F52EB6
:10142800122D0C788BE6FF75F003A42451F8E6FD25
:101438007C007BFF7A0279A6EF75F003A42452F8AA
:10144800E6752D00F52E122D0C788BE6FF75F0034E
:10145800A4244EF8E6FD7C007BFF7A0279A6EF759E
:10146800F003A4244FF8E6752D00F52E122D0C7804
:101478008BE6FF75F003A4244EF8E6640C704CEF7D
:1014880075F003A4244FF8E66470703F7BFF7A037D
:101498007926F52D752E707D0CFC122D0C7884168E
:1014A8001226E1788BE6FF75F003A4244EF8761C2B
:1014B800EF75F003A4244FF8E4F6EF75F003A424C5
:1014C80051F8E6640A70600606805C788BE6FF7562
:1014D800F003A42451F8E6640C704CEF75F003A4F3
:1014E8002452F8E66470703F788AE614FF788BE639
:1014F800C39F50337BFF7A037926752D00752E70B4
:101508007D0C7C00122D0C7884161226E1788BE66F
:10151800FF75F003A42451F8761CEF75F003A4249A
:1015280052F8E4F6788B067884E6FF7E00788BE63E
:101538002401FDE433FC7888E6FA08E6FB02261766
:1026E1007884E670351232067884E6FF7E00788BB6
:1026F100E62401FDE433FC7888E6FA08E6FB1226BD
:10270100177F057E001230CD123013122F06C28CB6
:102711007F9C1231BF7886760222788AE6FF75F0B7
:1027210003A4244EF8E6B41C0BEF75F003A4244F68
:10273100F8E66009788AE614788B66705E123206D4
:102741007884E6F975F064A4FF7880E6FC08E62F4A
:10275100FBE5F03CFA7888E6FE08E6FF7C007D0A9E
:10276100120B68EF2B7881F6EE3A18F6E9FF7E003E
:10277100788BE62401FDEC33FC7888E6FA08E6FB69
:102781001226177F057E001230CD123013122DE272
:0C279100C28C7F9C1231BF78867601223A
:100C8B00788BE6FF75F003A42451F8E66406600345
:100C9B00020D1DEF75F003A42452F8E6C394205007
:100CAB0071788BE6FF600864026004EFB40403788C
:100CBB008B06788BE6FF75F003A4244FF87410268F
:100CCB00F6EF75F003A42452F8741026F67BFF7A26
:100CDB00027946E624F0F52EE434FFF52D7D067CF3
:100CEB0000122D0C7BFF7A037946E4F52DF52E7D52
:100CFB0006FC122D0C7BFF7A0279A6788BE675F039
:100D0B0003A42452F8E6752D00F52E7D067C000217
:100D1B000F94788BE6FF75F003A4244FF8E664205C
:100D2B007056EF75F003A4244EF8E6FFD3940440FD
:100D3B0047788BE6FEEFFD7C007BFF7A027946EE6F
:100D4B0075F003A4244FF8E6752D00F52E122D0C2B
:100D5B00788BE6FF75F003A4244EF81616E6FD7C9F
:100D6B00007BFF7A0279A6EF75F003A4244FF8E617
:100D7B00752D00F52E122D0C788BE6FF75F003A464
:100D8B002452F8E664207056EF75F003A42451F852
:100D9B00E6FFC394085047788BE6FEEFFD7C007BA3
:100DAB00FF7A027946EE75F003A42452F8E6752D0E
:100DBB0000F52E122D0C788BE6FF75F003A4245151
:100DCB00F80606E6FD7C007BFF7A0279A6EF75F04C
:100DDB0003A42452F8E6752D00F52E020F94788BA0
:100DEB00E6FF75F003A4244FF8E6C394505061EF6F
:100DFB0075F003A4244EF8E6FF64047053788BE679
:100E0B00FEEFFD7C007BFF7A027946EE75F003A4C2
:100E1B00244FF8E6752D00F52E122D0C788BE6FF7E
:100E2B0075F003A4244FF8741026F6EF75F003A4A5
:100E3B00244EF8E6FD7C007BFF7A0279A6788BE6E0
:100E4B0075F003A4244FF8E6752D00F52E122D0C2A
:100E5B00788BE6FF75F003A42452F8E6C394505048
:100E6B0061EF75F003A42451F8E6FF640870537822
:100E7B008BE6FEEFFD7C007BFF7A027946EE75F088
:100E8B0003A42452F8E6752D00F52E122D0C788B49
:100E9B00E6FF75F003A42452F8741026F6EF75F0F4
:100EAB0003A42451F8E6FD7C007BFF7A0279A67837
:100EBB008BE675F003A42452F8E6752D00F52E028F
:100ECB000F94788BE6FF75F003A4244FF8E664507B
:100EDB007055EF75F003A4244EF8E6FF64047047D9
:100EEB00788BE6FEEFFD7C007BFF7A027946EE7590
:100EFB00F003A4244FF8E6752D00F52E122D0C7877
:100F0B008BE6FF75F003A4244EF80606E6FD7C0085
:100F1B007BFF7A0279A6EF75F003A4244FF8E675F0
:100F2B002D00F52E122D0C788BE6FF75F003A42403
:100F3B0052F8E664507058EF75F003A42451F8E6AC
:100F4B00FF6408704A788BE6FEEFFD7C007BFF7A2E
:100F5B00027946EE75F003A42452F8E6752D00F5E0
:100F6B002E122D0C788BE6FF75F003A42451F81686
:100F7B0016E6FD7C007BFF7A0279A6EF75F003A4E1
:100F8B002452F8E6752D00F52E122D0C021149781E
:100F9B008BE6FF75F003A4244FF8E6C3947040036F
:100FAB00021070EF75F003A4244EF8E6FF640660A0
:100FBB0003021070788BE6FEEFFD7C007BFF7A025C
:100FCB007946EE75F003A4244FF8E6752D00F52E47
:100FDB00122D0C788BE6FF75F003A4244FF87410D8
:100FEB0026F6EF75F003A4244EF8E6FD7C007BFF9C
:100FFB007A0279A6788BE675F003A4244FF8E67590
:10100B002D00F52E122D0C788BE6FF75F003A42422
:10101B004FF8E66470704EEF75F003A4244EF8E6BB
:10102B0064067041788BE6FF75F003A4244FF8E457
:10103B00F6EF75F003A4244EF8761C7884167BFF2C
:10104B007A0279C6E4F52DF52E7D1CFC122D0C7B56
:10105B00FF7A037926752D00752E707D067C0012A4
:10106B002D0C1226E1788BE6FF75F003A42452F8C1
:10107B00E6C394704003021149EF75F003A42451A9
:10108B00F8E6FF64066003021149788BE6FEEFFD7C
:10109B007C007BFF7A027946EE75F003A42452F8AC
:1010AB00E6752D00F52E122D0C788BE6FF75F003EF
:1010BB00A42452F8741026F6EF75F003A42451F80B
:1010CB00E6FD7C007BFF7A0279A6788BE675F00350
:1010DB00A42452F8E6752D00F52E122D0C788BE614
:1010EB00FF75F003A42452F8E664707051EF75F0AD
:1010FB0003A42451F8E664067044788BE6FF75F080
:10110B0003A42452F8E4F6EF75F003A42451F87607
:10111B001C7884167BFF7A0279C6E4F52DF52E7DBB
:10112B001CFC122D0C7BFF7A037926752D00752E76
:10113B00707D067C00122D0C1226E1788B06788BC5
:10114B00E6FF75F003A42452F8E67018EF75F00370
:10115B00A42451F8E6B41A0C798BE7C3788A96501D
:10116B0003788B067884E6FF7E00788BE62401FDFE
:0D117B00E433FC7888E6FA08E6FB0226174C
:1031E3008F0EEDC31375F00EA4F50F7B007A0079F3
:0131F3000ECD
:0131F40022B8
:101F6200E4F526E526D3788D964003022028E5265F
:101F720025E0243EF8E6FF7883E6FDC3EF9DFFE40B
:101F82009400CF2402CF3400FEE52625E0243DF85C
:101F9200E6FD7882E6FBC3ED9BFDE494006EFEED68
:101FA2006FAC066402FDE412092212284FC004C07D
:101FB20005C006C0077F007E007D807C4112284F4D
:101FC200E4FBFA7980783F1206ADA804A905AA06B7
:101FD200AB07D007D006D005D0041208A4601C407D
:101FE2001A7887167BFF7A0279C67882E6FD7C0032
:101FF2007883E6752D00F52E122D0C7887E6702178
:102002007BFF7A0279467882E6FD7C007883E6756A
:102012002D00F52E122D0CE47882F67883F67527C2
:10202200010526021F65E527640170767889740A26
:1020320026F618E436F6E6FE08E6FF7C007D64121A
:102042000B7AAB07C003EF75F00AA4FB7888E6FEB3
:1020520008E6FF7C007D0A120B7AC3EF9BFB7888AF
:10206200E6FE08E6FF7C007D64120B7AEF75F064F1
:10207200A4FF7889E6C39FFA18E6FE08E6FF7C0013
:102082007D0A120B7AEF75F00AA4FFC3EA9FF52CC2
:102092008B2B788AE6FF7884E6FDD003122A17E4B8
:0220A200F52720
:0120A4002219
:10154800E4F527F526E526D3788D9640030217445F
:10155800788BE6FF75F003A42452F8E6FDE526250E
:10156800E0243EF8E6C39DFDE49400CD2402CD348A
:1015780000FCEF75F003A42451F8E6FFE52625E00A
:10158800243DF8E6C39FFFE494006CFEEF6DAC06C3
:101598006402FDE412092212284FC004C005C006E7
:1015A800C0077F007E007D807C4112284FA804A9D7
:1015B80005AA06AB07D007D006D005D0041208A4A8
:1015C800607D407B788BE6FF75F003A42453F81602
:1015D800EF75F003A42451F8E6FD7C007BFF7A0246
:1015E80079C6788BE675F003A42452F8E6752D00C9
:1015F800F52E122D0C788BE6FF75F003A42453F812
:10160800E6703CEF75F003A42451F8E6FD7C007BFE
:10161800FF7A027946EF75F003A42452F8E6752D97
:1016280000F52E122D0C788BE6FF75F003A42451DB
:10163800F8761AEF75F003A42452F8E4F605277833
:101648008BE6FF75F003A4244FF8E6FDE52625E0B8
:10165800243EF8E6C39DFDE49400CD2402CD340079
:10166800FCEF75F003A4244EF8E6FFE52625E024F8
:101678003DF8E6C39FFFE494006CFEEF6DAC066492
:1016880002FDE412092212284FC004C005C006C09A
:10169800077F007E007D807C4112284FE4FBFAF929
:1016A800784012079EA804A905AA06AB07D007D060
:1016B80006D005D0041208A4607D407B788BE6FF35
:1016C80075F003A42450F816EF75F003A4244EF81F
:1016D800E6FD7C007BFF7A0279C6788BE675F0031D
:1016E800A4244FF8E6752D00F52E122D0C788BE604
:1016F800FF75F003A42450F8E6703CEF75F003A4DE
:10170800244EF8E6FD7C007BFF7A027946EF75F0FF
:1017180003A4244FF8E6752D00F52E122D0C788BB6
:10172800E6FF75F003A4244EF8761AEF75F003A4CB
:10173800244FF8E4F60527052602154DE52760270E
:1017480075F00AA4AEF0788926F618EE36F6788495
:10175800E6FF7E00788BE6FD7C007888E6FA08E6EE
:07176800FB122617E4F52730
:01176F002257
:101B31007F9F1231BFAB71AD707F211231ACE57265
:101B4100249C604A24F2603324FD601D24FC605A09
:101B5100240D6003021C20E4F572E57070057570B8
:101B61000C803C157015708036E4F572E5717005D6
:101B710075710E8004157115718024E4F572E5709C
:101B8100B40C05E4F5708004057005708011E4F56E
:101B910072E571B40E05E4F571800405710571AB50
:101BA10071AD707F211231AC8075E4F572C3788913
:101BB100E6940A18E694004066AD71AF701231F5F3
:101BC100C001788DE675F002A4243DF9E4A801FC7A
:101BD100FDD001FE7F02120B15788DE6FF25E02472
:101BE1003DF8E6FD7C007BFF7A037906EF25E024D2
:101BF1003EF8E6752D00F52E122D0C788D067889AC
:101C010074F626F61874FF36F67884E6FF7E0078BF
:101C11008BE6FD7C007888E6FA08E6FB1226177849
:101C210086E6B4021AE4F6E57260FCE4F572121C71
:101C3100BDE4FF1231277885E6FF122AA180E878FA
:101C410086E664016003021B31F67880E6FA08E655
:101C5100FB7C007D64FFAE02120B7A8F0F7C007D4E
:101C610064AF03AE02120B7A8D10E50F75F00A8492
:101C7100FF7E00E50F75F00A84ADF07C00E510757C
:101C8100F00A84FB7A00E4F517F518122FE2E572E9
:101C91002492601124F570D2E4F572788C0678856F
:101CA100E6FF123109E4F572121CBDE4FF1231277F
:0C1CB100122D797885E6FF122AA180AE82
:0E30BE000C7400000000000000000000000084
:101CBD00122FA41230137BFF7A007926752D007533
:101CCD002E187D0C7C00122D0C7BFF7A0079467549
:101CDD002D00752E187D0E7C00122D0C7BFF7A00C9
:101CED007966752D00752E187D107C00122D0C7BDC
:101CFD00FF7A007986752D00752E187D127C0012E5
:101D0D002D0C7BFF7A0079A6752D00752E187D148C
:101D1D007C00122D0C7BFF7A0079C6752D00752E77
:101D2D00147D0A7C00122D0C7BFF7A0079C6752D6F
:101D3D0000752E147D087C00122D0C7BFF7A007926
:101D4D00C6752D00752E237D097C00122D0C7BFF91
:101D5D007A0079E6752D00752E377D0B7C00122DDE
:101D6D000C7BFF7A017906752D00752E377D0D7C64
:101D7D0000122D0C7BFF7A017926752D00752E37FB
:101D8D007D0F7C00122D0C7BFF7A0179A6752D003D
:101D9D00752E487D0B7C00122D0C7BFF7A0179C6C8
:101DAD00752D00752E487D0D7C00122D0C7BFF7A54
:101DBD000179E6752D00752E487D0F7C00122D0CD6
:101DCD007BFF7A027906752D00752E487D117C00FA
:101DDD00122D0C7BFF7A017946752D00752E597DDC
:101DED000B7C00122D0C7BFF7A017966752D007529
:101DFD002E597D0D7C00122D0C7BFF7A0179867595
:0C1E0D002D00752E597D0F7C00022D0C5D
:103127007BFF7A027926EF75F00FA4AEF02437F50E
:0C3137002EE43EF52D7D147C00022D0CD2
:103143007BFF7A027946EF75F00FA4AEF02437F5D2
:0C3153002EE43EF52D7D147C00022D0CB6
:102BB100E4F510F511C3E511941EE51064809480CD
:102BC10050207BFF7A027986752D00752E0FAD118D
:102BD100AC10122D0C74022511F511E43510F5100D
:102BE10080D37BFF7A0379A6E4F52DF52E7D02FCD7
:102BF100122D0C7BFF7A0379C6E4F52DF52E7D04A9
:102C0100FC122D0C7BFF7A037966E4F52DF52E7D00
:102C110016FC122D0C7BFF7A037986E4F52DF52E37
:062C21007D18FC022D0CE1
:102A17008D298B2AEF75F010A424E6F9740335F09D
:102A2700FA7BFFE4F535F5367D06FC122C27E52900
:102A370075F010A424E6F9740335F0FA7BFFE4F58A
:102A470035F5367D0EFC122C27E52A75F010A424E7
:102A5700E6F9740335F0FA7BFFE4F535F5367D1AB0
:102A6700FC122C27E52B75F010A424E6F974033526
:102A7700F0FA7BFFE4F535F5367D1BFC122C27E5D4
:102A87002C75F010A424E6F9740335F0FA7BFFE403
:0A2A9700F535F5367D1CFC022C27F6
:10240600123013122BB17BFF7A037946752D0075B6
:102416002E387D027C00122D0C7BFF7A03792675FF
:102426002D00752E477D1A7C00122D0C750E007539
:102436000F04C3E50F9412E50E6480948050207B50
:10244600FF7A0279E6752D00752E29AD0FAC0E12B6
:102456002D0C7402250FF50FE4350EF50E80D3759D
:102466000E00750F12C3E50F941AE50E6480948072
:1024760050207BFF7A0279E6752D00752E38AD0F58
:10248600AC0E122D0C7402250FF50FE4350EF50E69
:1024960080D3750E00750F04C3E50F9410E50E6426
:1024A60080948050207BFF7A0279E6752D00752E88
:1024B60047AD0FAC0E122D0C7402250FF50FE43547
:1024C6000EF50E80D3750E00750F10C3E50F941A26
:1024D600E50E6480948050207BFF7A0279E6752DA4
:1024E60000752E56AD0FAC0E122D0C7402250FF58D
:1024F6000FE4350EF50E80D3123221123214788491
:102506007603788A76027888760008766475700293
:03251600757106D6
:01251900229F
:102F06001230137BFF7A0479B6752D00752E387D45
:102F16000A7C00122D0C7BFF7A0479D6752D00757C
:102F26002E387D0C7C00122D0C7BFF7A0479F67509
:102F36002D00752E387D0E7C00122D0C7BFF7A0538
:0F2F46007916752D00752E387D107C00022D0C2C
:102DE2001230137BFF7A057936752D00752E387DEA
:102DF2000A7C00122D0C7BFF7A057956752D007521
:102E02002E387D0C7C00122D0C7BFF7A05797675AD
:102E12002D00752E387D0E7C00122D0C7BFF7A055D
:102E22007996752D00752E387D107C00122D0C7B45
:102E3200FF7A0579B6752D00752E387D127C000259
:022E42002D0C55
:102B2900123013122F55E4F50AE4F50BE50B75F095
:102B390010A424D6F9740535F0FA7BFFE50B2408B7
:102B4900FDE433FCE50A75F00FA4AEF0241FF53659
:102B5900E43EF535122C27050BE50BC3940340CC55
:102B6900E50A75F010A424F6F9740335F0FA7BFF31
:102B7900E50B2408FDE433FCE50A75F00FA4AEF07B
:102B8900241FF536E43EF535122C27E50A25E02405
:102B990074F8E6FA08E6FBAD0BAF0A1222EF050A54
:072BA900E50AC39405408218
:012BB0002202
:1022EF008F0C8D0D8A0E8B0FAE0EAF0F7C037DE81A
:1022FF00120B7AEFC4F8540FC868FFEEC454F048BD
:10230F00FE74E62FF974033EFA7BFFE50D240BFDF7
:10231F00E433FCE50C75F00FA4AEF0241FF536E4A2
:10232F003EF535122C27AE0EAF0F7C037DE8120B56
:10233F007A7C007D0A120B68AA06AB07AE0EAF0FB0
:10234F007D64120B7AC3EF9BFFEE9AFEEFC4F85435
:10235F000FC868FFEEC454F048FE74E62FF97403FB
:10236F003EFA7BFFE50D240CFDE433FCE50C75F024
:10237F000FA4AEF0241FF536E43EF535122C27AE30
:10238F000EAF0F7C007D64120B7A7C007D0A120B5E
:10239F0068AA06AB07AE0EAF0F120B7AC3EF9BFF07
:1023AF00EE9AFEEFC4F8540FC868FFEEC454F0481D
:1023BF00FE74E62FF974033EFA7BFFE50D240DFD45
:1023CF00E433FCE50C75F00FA4AEF0241FF536E4F2
:1023DF003EF535122C277BFF7A0379E6E50D240EA7
:1023EF00FDE433FCE50C75F00FA4AEF0241FF536B9
:0723FF00E43EF535022C2736
:102C9B00123013E4F50A7BFF7A067906E50A75F024
:102CAB0011A4AEF0241FF52EE43EF52D7D0C7C0017
:102CBB00122D0CE50A75F010A424F6F9740335F007
:102CCB00FA7BFFE50A75F011A4AEF0241FF536E48C
:102CDB003EF5357D0E7C00122C277BFF7A0679267C
:102CEB00E50A75F011A4AEF0241FF52EE43EF52D88
:102CFB007D0F7C00122D0C050AE50AC39405409646
:012D0B0022A5
:101E19001230131221D57BFF7A037946752D00758F
:101E29002E10E4FDFC122D0C7BFF7A037926752D0B
:101E390000752E707D0C7C00122D0CE4F50FE50F5A
:101E490075F002A42402FDE435F0FC7BFF7A0279E7
:101E5900E6E4F52DF52E122D0C050FE50FC39406BA
:101E690040DCE4F50F7BFF7A0279E6E50F75F010A7
:101E7900A4AEF02410F52EE43EF52D7D0C7C001265
:101E89002D0C050FE50FC3940640DAE4F50FE50FB5
:101E990075F002A42402FDE435F0FC7BFF7A027997
:101EA900E6752D00752E20122D0C050FE50FC39434
:101EB9000440DBE4F50F7BFF7A0279E6E50F75F064
:101EC90010A4AEF02420F52EE43EF52D7D087C000B
:101ED900122D0C050FE50FC3940340DAE4F50FE565
:101EE9000F75F002A4FFC374069FFDE495F0FC7B17
:101EF900FF7A0279E6752D00752E40122D0C050F1B
:101F0900E50FC3940340D8E4F50F7BFF7A0279E625
:101F1900E50F75F010A4AEF02450F52EE43EF52D32
:101F29007D027C00122D0C050FE50FC3940340DAE6
:101F3900E4F50FE50F75F002A42406FDE435F0FC85
:101F49007BFF7A0279E6752D00752E60122D0C053E
:081F59000FE50FC3940340DB08
:011F6100225D
:10251A001230131221D57BFF7A037946E4F52DF5A3
:10252A002E7D06FC122D0C7BFF7A037926752D0071
:10253A00752E707D067C00122D0C7BFF7A0279E6DF
:10254A00752D00752E107D047C00122D0C7BFF7AF0
:10255A000279E6752D00752E107D087C00122D0C6F
:10256A00E4F50F7BFF7A0279E6E50F2403FFE433F3
:10257A00FEEFC4F8540FC868F52EEEC454F048F5BF
:10258A002D7D067C00122D0C050FE50FC394024029
:10259A00D2E4F50F7BFF7A0279E6E50F2401FFE426
:1025AA0033FEEFC4F8540FC868F52EEEC454F04851
:1025BA00F52D7D027C00122D0C7BFF7A0279E6E56F
:1025CA000F2401FFE433FEEFC4F8540FC868F52E58
:1025DA00EEC454F048F52D7D0A7C00122D0C050F2F
:1025EA00E50FC3940640AD7BFF7A0279E6752D00AC
:1025FA00752E607D047C00122D0C7BFF7A0279E631
:0D260A00752D00752E607D087C00022D0CE2
:1021D500E4F5107BFF7A027966E51075F00EA485AB
:1021E500F02DF52E7D0E7C00122D0C0510E510C38B
:1021F500940940DFE4F510E51075F002A42410FD04
:10220500E435F0FC7BFF7A027986752D00752E3852
:10221500122D0C0510E510C3940740DB7BFF7A03F4
:1022250079A6E4F52DF52E7D10FC122D0C7BFF7A99
:102235000379C6E4F52DF52E7D12FC122D0C7BFFDE
:102245007A047986E4F535F5367D15FC122C277868
:102255008AE675F010A424E6F9740335F0FA7BFFDD
:10226500E4F535F5367D16FC122C277BFF7A0379CC
:1022750066752D00752E127D107C00122D0C7BFFCE
:102285007A037986752D00752E127D127C00122D2C
:102295000C7BFF7A0479967535007536247D107CA4
:1022A50000122C277BFF7A0479A675350075362434
:1022B5007D127C00122C27E4F510E51075F020A4A2
:1022C5002446F9740635F0FA7BFFE51075F002A493
:1022D5002414FDE435F0FC752D00752E46122D0CE9
:0922E5000510E510C3940340D17B
:0122EE0022CD
:0C2617008E288F298C2A8D2B8A2C8B2D6D
:10262300AE2CAF2D7C007D64120BCFAB07EB75F0A6
:102633000AA4FAAE2CAF2D7C007D0A120BCFC3EF98
:102643009AF52E8B2FE52BC4F8540FC868FFE52AA3
:10265300C454F048FE74E62FF974033EFA7BFFE49A
:10266300F535F5367D14FC122C27E52F75F010A4F3
:1026730024E6F9740335F0FA7BFF753500753612DD
:102683007D147C00122C27E52E75F010A424E6F9A6
:10269300740335F0FA7BFF7535007536127D157CB2
:1026A30000122C277BFF7A0379E675350075361205
:1026B3007D167C00122C27E529C4F8540FC868FF47
:1026C300E528C454F048FE74E62FF974033EFA7B00
:0E26D300FF7535007536247D147C00022C271F
:10002600030001807FFF6003C06600600060FFFF81
:100036000060006018600C600C60006001E000C0A9
:1000460000007FFC030C030C030C030C030C030CD5
:10005600033C03180300030003000300FFFF000036
:10006600030001800180FFFF06000600060007F876
:100076000618061806180C180C18181830F06060C8
:10008600030006001FF818181B1819981998FFFF87
:1000960018181B1819981998301830186078C0303D
:1000A60000001800180018001800180018001800A2
:1000B60018001800000000001800180000000000DA
:1000C60000000C30066003C01FF81008166813C83D
:1000D600118810081FF80000000000000000000052
:1000E600100008047F78004022401440FF7E084834
:1000F60008487F4808482A484948888828881108B7
:1001060002102110111017BE8220424043BC1284F7
:1001160012882288E2BE22882488248829A8101002
:100126000020002800247E240220023E25E014241C
:1001360008240828142812102232404A0086010298
:10014600109010901090179EF890109010901B9C95
:100156003090D0901090179E109010905090209054
:10016600080009FC100020004800080013FE30209B
:1001760050209020102010201020102010A0104099
:100186001040102013FC1108FC9013FE32023C4470
:10019600542053FC908010F8108811081128121072
:1001A60000402240124013F804400040F7FC1120A2
:1001B6001120112012241224141C280047FE0000CE
:1001C600200027F822082110F0A0204021B0264E5A
:1001D6003040E3F82040204027FC2040A04040402B
:1001E60010100810082000003FF80100010001006F
:1001F600FFFE010002800280044008203018C0067D
:100206000200020003F8020002000200FFFE0200E4
:100216000200024002200210020802000200020050
:1002260000000000000006000C001800300060000E
:100236005FF86000300018000C00060000000000A7
:1002460000000000000000000000000000000000A8
:100256000000000000000000000000000000000098
:100266000540054005400540054005400540054060
:100276000540054005400540054005400540054050
:1002860000000000000000000000FFFF0000FFFF6C
:100296000000FFFF0000000000000000000000005A
:1002A600000000003FFC3FFC3FFC3FFC3FFC3FFCE6
:1002B6003FFC3FFC3FFC3FFC3FFC3FFC00000000D6
:1002C60000007FFE7DFE6FDE755E76967762756254
:1002D600697E6A7E78366FA67FEE6AFE7FFE000034
:1002E60000007FFE7FFE6006600660066006600610
:1002F600600660066006600660067FFE7FFE000000
:100306000000000007C00D601D702D687FFC4D6C5D
:100316004D6C7FFC2D681D700D6007C0000000004D
:10032600C003E007700E381C1C380E700660018092
:10033600018006600E701C38381C700EE007C00382
:1003460001800180066006600C300DB0199819987E
:10035600318C318C60066186C003C003FFFFFFFF4E
:100366000100010002800440082010102FE8C10699
:1003760001003FF80100111009100920FFFE0000DE
:10038600000801FC7F00010001003FF82108210858
:10039600210821082108212821100100010001005F
:1003A60004200E203820083E0844FF44084408A4D0
:1003B6003E2822282210221022283E4822840102AA
:1003C600010001000100010001000100028002801D
:1003D6000440044008200820101020084004800231
:1003E60000000018244242424242424224180000C1
:1003F600000000083808080808080808083E000039
:100406000000003C4242420204081020427E0000E6
:100416000000003C4242020418040242423C000032
:10042600000000040C0C142424447F04041F000064
:100436000000007E404040784402024244380000FA
:10044600000000182440405C62424242221C000028
:100456000000007E4204040808101010101000006E
:100466000000003C4242422418244242423C000022
:100476000000003844424242463A02022418000074
:100486000000020404040808101010202040400058
:10049600000000E7424242427E42424242E70000FA
:1004A600000000FC424242427C40404040E00000E6
:1004B6000C180C7C0FE018601860386038607FFFFD
:1004C600D860186018601860186018601FFE180061
:1004D600060006000FF81C3036E003800EE03B38BD
:1004E600E30F1FF80318061806180C1818F03060EA
:1004F60001801980198019803FFC3180618001805C
:10050600FFFF03C0066006600C301818300CE007C9
:1005160000607E6066607EC07EFF7F8C7FCC7ECC76
:100526007ECC7E787E7818303C7836CC6786C303DE
:100536000C180C7C0FE018601860386038607FFF7C
:10054600D860186018601860186018601FFE1800E0
:10055600060006000FF81C3036E003800EE03B383C
:10056600E30F1FF80318061806180C1818F0306069
:100576000078006C00603FFF3060306030663F6698
:100586003366333C333C331B3F3B666F60C7C183E6
:10059600006000600060FF6019FE18661866186645
:1005A600186618C618C61FC6F9866186033C061863
:1005B600000018001800180018001800180018008D
:1005C60018001800000000001800180000000000C5
:1005D600000000C7626252524A4A4A4646E200009A
:1005E600000000384482828282828282443800007F
:1005F6000000000000000000000000006060000035
:1006060020403F7E489085083FF8010801083FF8E2
:10061600210021003FFC030405041928E110010014
:1006260010100810082000003FF80100010001002A
:10063600FFFE010002800280044008203018C00638
:1006460002082110100017FC008003F8F20813F8C6
:10065600120813F8120813F81208280047FE0000C3
:1006660000001FF0101010101FF010101FF01010D7
:100676001FF010101010FFFE044008201010200874
:100686001000110810881090FC0013FE300038008E
:10069600540055FC900010001000100013FE1000CE
:05000300120008D2B557
:0100080022D5
:0A323600D2B5120008D2B60200085B
:0A324000D2B6120003C2B602000865
:0B3088001230EB123093AF051230EB5A
:10309300E4FFD2B512000830B609EFC394FF500322
:0830A3000F80F4C2B502000821
:0A324A00C2B6120003D2B60200085B
:1030EB00E4FEEF25E0FFC2B512000892B612000312
:0E30FB000EBE08EEC2B5120008D2B6020008E2
:10304000C2B5120008D2B6120008E4FED2B51200D2
:1030500008EF25E0FDA2B6E4334DFFC2B51200082B
:043060000EBE08E8B0
:013064002249
:10000E00AC071232407FA01230EB123093AF0412C5
:05001E00308802324AA7
:02315F00AD07BA
:103161001232407FA01230881232407FA11230EB20
:0931710012309312304012324A70
:01317A002232
:10279D007880E6FF08E690000ACF8FF0120C3D75A9
:1027AD001401AF14EF3395E0FEEF25E0FFEE338F0C
:1027BD0082F583120C05F51785F016E51414F51541
:1027CD00C3E515648094804049AF15EF3395E0FE65
:1027DD00EF25E0FFEE33FE8F82F583120C05C395D6
:1027ED0017E5F09516502B8F828E83120C05FDAFD9
:1027FD0015EF3395E0FEEF2401FFE43EFEEF25E0FB
:10280D00FFEE338F82F583E5F08DF0120C3D15153B
:10281D0080AEAF15EF3395E0FEEF2401FFE43EFEF1
:10282D00EF25E0FFEE338F82F583E5168517F01265
:0D283D000C3D0514E514640660030227AF8E
:01284A00226B
:102D79007B007A00797412279DE4F511E51125E0AD
:102D89002474F8E6FA08E6FB7C007D64FFAE0212C3
:102D99000B7A8F12AF03E51275F064A4FEC3EF9EA0
:102DA900F513E51125E004FFAD1212000E7F057E33
:102DB900001230CDE51125E02402FFAD1312000EFB
:102DC9007F057E001230CD0511C3E511648094851D
:082DD90040AAE47880F608F638
:012DE10022CF
:102F5500E4F50CE50C25E004FF12315F8F0D7F05CC
:102F65007E001230CDE50C25E02402FF12315F8F83
:102F75000E7F057E001230CDE50D75F064A47C0052
:102F8500250EFFEC35F0FEE50C25E02474F8A606C9
:0E2F950008A607050CC3E50C6480948540B5C2
:012FA300220B
:1020A5008F0A7BFF7A027926788CE675F011A4AE4B
:1020B500F0241FF52EE43EF52D7D127C000221B49F
:1020C500E572249C700302214B24F670030221C79C
:1020D50024F570030221BA240470E5E4F572788CC6
:1020E500E6FF70227BFF7A027946EF75F011A4AE08
:1020F500F0241FF52EE43EF52D7D127C00122D0CEB
:10210500788C76048003788C167BFF7A02792678A2
:102115008CE675F011A4AEF0241FF52EE43EF52DE6
:102125007D127C00122D0C7BFF7A027946788CE6B5
:10213500FF7E007C007D11120B68EF2430F52EE444
:102145003EF52D0D8069E4F572788CE6FFB4042127
:102155007BFF7A02794675F011A4AEF0241FF52EA7
:10216500E43EF52D7D127C00122D0CE4788CF68072
:1021750003788C067BFF7A027926788CE675F01158
:10218500A4AEF0241FF52EE43EF52D7D127C001241
:102195002D0C7BFF7A027946788CE6FF7E007C0069
:1021A5007D11120B68EF240EF52EE43EF52D0D1270
:1021B5002D0C0220C5E4F572788CE6FF1231090278
:1021C50020C5E4F572121CBDAF0A122AA10220C572
:103109008F0E123206788CE614600C14600C2402BF
:0E311900700BAF0E021770022E44122EA5226C
:021770008F0ADE
:10177200122406788AE6FF7884E6FDE4F52BF52C40
:101782007B01122A177F9F1231BFAB71AD707F218F
:101792001231ACE572249C602A24F2601E24FD60A2
:1017A2001124FC6031240D60030218A3157015701A
:1017B200800D74FD2571F571FB800E05700570AB0F
:1017C20071800605710571AB71AD707F211231AC6C
:1017D200E4F5720218A3C37889E6940A18E6940025
:1017E20050030218A3AD71AF701231E3C001788DBE
:1017F200E675F002A4243DF9E4A801FCFDD001FE47
:101802007F02120B15788DE6FF25E0243DF8E6FDF8
:101812007C007BFF7A037906EF25E0243EF8E6752B
:101822002D00F52E122D0C788D06788974F626F689
:101832001874FF36F6E4F572E6FE08E6FF7C007DDA
:1018420064120B7AAB07C003EF75F00AA4FB788829
:10185200E6FE08E6FF7C007D0A120B7AC3EF9BFBD3
:101862007888E6FE08E6FF7C007D64120B7AEF754D
:10187200F064A4FF7889E6C39FFA18E6FE08E6FF43
:101882007C007D0A120B7AEF75F00AA4FFC3EA9F6F
:10189200F52C8B2B788AE6FF7884E6FDD003122A9A
:1018A200177886E664016003021930F67880E6FE56
:1018B20008E6FF7C037DE8120B7A8F0BEF75F00AC6
:1018C200A4FB7880E6FE08E6FF7C007D64120B7ABA
:1018D200C3EF9BF50CEF75F00AA4FB7880E6FE08D7
:1018E200E6FF7C007D0A120B7AC3EF9BF50DAF0B6E
:1018F2007E00AD0C7C00AB0D7A00E4F517F51812F2
:101902002FE2E5722492601124F570E2E4F5727818
:101912008C06AF0A12310980D5E4F572122D7912C4
:101922001CBDE4FF123127AF0A122AA180C07886BB
:10193200E664026003021787F6E57260FCE4F57262
:10194200121CBDE4FF123127AF0A122AA102178727
:102E4400757002E4F5717888F6087678788BF678F0
:102E54008A7606FFEF75F003A42453F87603EF7522
:102E6400F003A42451F87602EF75F003A42452F879
:102E74007610EF25E0243DF8761C0FBF0AD678843F
:102E84007603121E197884E6FF7E00788BE6FD7CBB
:102E9400007888E6FA08E6FB122617123221021B94
:012EA40031FC
:102EA500757006E4F5717888F6087678788BF6788B
:102EB5008A7606FFEF75F003A42453F87603EF75C1
:102EC500F003A42451F87606EF75F003A42452F814
:102ED500E4F6EF25E0243DF8761C0FBF0AD678848A
:102EE500760312251A7884E6FF7E00788BE6FD7C52
:102EF500007888E6FA08E6FB122617123221021B33
:012F0500319A
:09325D00B2B47F017E000230CD05
:0E320600788D76FF12325D788D16E670F72215
:1006A600020990E86480F8E933E83360110460F0E9
:1006B600ED33EC337009E8FCE9FDEAFEEBFF2204BA
:1006C60060DED3EB9FEA9EE99DE8C2E78CF0C2F7B5
:1006D60095F0400CE8CCF8E9CDF9EACEFAEBCFFB81
:1006E60012095B85D0F05804700320D5B3E8047076
:1006F600075002B2D502099A92D5EC0460F7E4CC11
:10070600C0E0C398F8603B94186008400DD0E0FB49
:10071600020972E4FBFAC9FC8028E830E406E4C961
:10072600FBE4CAFCE830E305E4C9CACBFCE854079D
:100736006010F8C3E913F9EA13FAEB13FBEC13FCA8
:10074600D8F130F52FC3E49CFCEF9BFFEE9AFEED4B
:1007560099FDD0E0FBEF4E4D4C701222DB030209EF
:1007660097EC2CFCEF33FFEE33FEED33FDED30E777
:10077600EB020972EF2BFFEE3AFEED39FDD0E0FBFE
:1007860050130BBB000302099AED13FDEE13FEEFA7
:0807960013FFEC13FC020972D1
:10079E00EC4D6011E8497017ED33EC3304600DE455
:1007AE00FCFFFEFD22E933E8330470F802099012D3
:1007BE00095B58046009E4CC2481500628500902D4
:1007CE00099A284003020997C0E0EB4A7044B980A9
:1007DE0006D0E0FB020986EF4E701CBD8008EBFFD1
:1007EE00EAFEE9FD80EBE98DF0A4FEE5F002088754
:1007FE00E9CDF9EAFEEBFFEF89F0A4FCE5F0CE8936
:10080E00F0A42EFFE435F0CD89F0A42DFEE435F0F2
:10081E008067EF4E7005BD80D780C3EF8BF0A4AC20
:10082E00F0EE8BF0A42CFCE435F0F8EF8AF0A42C5B
:10083E00E5F038FCE433CB8DF0A42CFCE5F03BF86E
:10084E00EE8AF0A42CFCE5F038F8E433CF89F0A45E
:10085E002CFCE5F038CF3400CE89F0A42FFFE5F064
:10086E003EFEE433C98DF0A42EFEE5F039CD8AF0BC
:10087E00A42FFFE5F03EFEE43DFD33D0E0FB500734
:10088E000BBB000F02099AEC2CFCEF33FFEE33FE8C
:06089E00ED33FD020972BA
:1008A40074F8CC6480CCC86480C8F58204604FC3FB
:1008B400EB9FF5F0EA9E42F0E99D42F0E89C45F09A
:1008C400603C501DE5825FFFE582D313CB5BCBF424
:1008D4002B5582FB50280ABA002409B9002008804D
:1008E4001DE5825BFBE582D313CF5FCFF4C3132FE7
:1008F4005582FF50090EBE00050DBD00010CC3EB6F
:100904009FF5F0EA9E42F0E99D42F0E89C45F060D4
:0909140007CC4820E701B3EC22F6
:10091D0075F020800E75F010800575F0087D007E55
:10092D00007F003392D530D503120C6AEC334010A2
:10093D00EF33FFEE33FEED33FDEC33FCD5F0ED225E
:0E094D00E5F0247EA2D513CC92E7CDCEFF229A
:10284B0002099022EDA2E7D2E7F9EC3340F260F3F4
:10285B00B4FF08ED547F70E802099AF82481C2E0B6
:10286B00C0E0F40428FAC313FCED92E7FD8C288D2D
:10287B00298E2A8F2BEEA2E7E9BA7F02C31334000D
:10288B009400FA75F091A4E5F013F494FE8AF0A489
:10289B0033E5F033248CD313FDE492E7FE7F007C09
:1028AB003F758302ECC0E0F8EDC0E0F9EEC0E0FA52
:1028BB00EFC0E0FBAC28AD29AE2AAF2B1209A8D094
:1028CB00E0FBD0E0FAD0E0F9D0E0F81206ADED6411
:1028DB0080FD30E7011CD583CBED33CC33F8D0E052
:0A28EB00A2E71328C313CC13FD224B
:10095B00E9D2E7C933E833F892D5EDD2E7CD33ECE2
:07096B0033FC5002B2D5225B
:10097200EC30E7100FBF000C0EBE00080DBD0004E6
:100982000BEB6014A2D5EB13FCED92E7FD2274FF92
:10099200FCFDFEFF22E480F8A2D574FF13FC7D80EB
:0309A200E480EFFF
:1009A50002099AEC5D046005E85904700302099098
:1009B50012095B580460F6EC4860F2EC7004FDFE29
:1009C500FF22C860DB2481C85009C3986002500625
:1009D5000209979850CAF582E9294B4A7005AB82FE
:1009E50002098675F0007C1A7880C3EF9BEE9AEDBC
:1009F50099400DC3EF9BFFEE9AFEED99FDE842F09D
:100A0500DC23ACF0D0E0FFD0E0FED0E0FDAB8220EF
:100A1500E7101BEB60BAEC2CFCEF33FFEE33FEED79
:100A250033FD020972E803F830E705C0F075F00000
:100A3500EF2FFFEE33FEED33FD40B830E7C280AA5D
:1029970002317BE493A3F8E493A34003F68001F2AA
:1029A70008DFF48029E493A3F85407240CC8C33341
:1029B700C4540F4420C8834004F456800146F6DF10
:1029C700E4800B01020408102040809030ABE47EC5
:1029D700019360BCA3FF543F30E509541FFEE49305
:1029E700A360010ECF54C025E060A840B8E493A3CC
:1029F700FAE493A3F8E493A3C8C582C8CAC583CAF7
:102A0700F0A3C8C582C8CAC583CADFE9DEE780BEAE
:0130CC000003
:100A4500E709F608DFFA8046E709F208DFFA803E93
:100A550088828C83E709F0A3DFFA8032E309F60880
:100A6500DFFA8078E309F208DFFA807088828C83E8
:100A7500E309F0A3DFFA806489828A83E0A3F6089C
:100A8500DFFA805889828A83E0A3F208DFFA804C76
:100A950080D280FA80C680D4806980F2803380104D
:100AA50080A680EA809A80A880DA80E280CA8033B6
:100AB50089828A83ECFAE493A3C8C582C8CCC5832E
:100AC500CCF0A3C8C582C8CCC583CCDFE9DEE780FE
:100AD5000D89828A83E493A3F608DFF9ECFAA9F07D
:100AE500EDFB2289828A83ECFAE0A3C8C582C8CCD3
:100AF500C583CCF0A3C8C582C8CCC583CCDFEADEEC
:100B0500E880DB89828A83E493A3F208DFF980CC4D
:100B150088F0EF60010E4E60C388F0ED2402B40446
:100B25000050B9F582EB2402B4040050AF232345ED
:060B35008223900A957373
:100B3B00BB010CE58229F582E5833AF583E022506F
:100B4B0006E92582F8E622BBFE06E92582F8E222B9
:0D0B5B00E58229F582E5833AF583E49322D3
:100B6800EF8DF0A4A8F0CF8CF0A428CE8DF0A42EA1
:020B7800FE225B
:100B7A00BC000BBE0029EF8DF084FFADF022E4CC5F
:100B8A00F875F008EF2FFFEE33FEEC33FCEE9DEC28
:100B9A00984005FCEE9DFE0FD5F0E9E4CEFD22ED6E
:100BAA00F8F5F0EE8420D21CFEADF075F008EF2FB8
:100BBA00FFED33FD4007985006D5F0F222C398FDA9
:050BCA000FD5F0EA2246
:100BCF00C2D5EC30E709B2D5E4C39DFDE49CFCEE41
:100BDF0030E715B2D5E4C39FFFE49EFE120B7AC334
:100BEF00E49DFDE49CFC8003120B7A30D507C3E42F
:060BFF009FFFE49EFE22B0
:100C0500BB0110E58229F582E5833AF583E0F5F02D
:100C1500A3E0225009E92582F886F008E622BBFE0A
:100C25000AE92582F8E2F5F008E222E5832AF58350
:080C3500E993F5F0A3E9932215
:100C3D00F8BB0111E58229F582E5833AF583E8F0E9
:100C4D00E5F0A3F0225009E92582C8F608A6F022A6
:0D0C5D00BBFE09E92582C8F2E5F008F2228D
:0E0C6A00C3E49FFFE49EFEE49DFDE49CFC229B
:100C7800E8600FECC313FCED13FDEE13FEEF13FF5A
:030C8800D8F1227E
:00000001FF
