:030000000201ED0D
:0C01ED00787FE4F6D8FD7581140202341E
:10027900AFA0E5A0F46048E5A0B4FFFBEF2441601E
:100289003524E0602C24F0602324F8601A24FC60F3
:100299001124FE600814702775116C801C75117586
:1002A90080177511728012751164800D751179802E
:0F02B9000875116E800375116D1203B3E4F51112
:0102C8002213
:06000300011100011200D2
:10035200E4FDFCC3ED9FEC9E5015E4FBFA0BBB00E1
:0F036200010AEB646E4A70F50DBD00010C80E4DA
:010371002269
:10000E00120372D2A97F647E00120352120279800B
:01001E00FBE6
:0C03B3008511993099FDC299E4F51122E2
:10037200758921758DFD758BFDD28EC29FD29ED25D
:060382009CD2AFD2AC22B8
:030023000203BF16
:0903BF00309805C29885991232AC
:10002600F2F3F5F5F6F7F8F9F9FAFAFBFBFCFCFC46
:10003600FDFDFDFDFEFEFEFEFEFEFEFF42C117B605
:10004600D0D1B621E18CD868E95B8FEE446BB4F46D
:100056002D4777A2B6DAFA16000002000002000069
:100066000206010107010101020307010101020263
:100076000302020701040002020301010301010653
:100086000103050101060102010202050104000146
:100096000203010204010303010104010201020239
:1000A600030103000001010201010201010201072F
:1000B6000103040101040102070102070104000013
:1000C6000206010107010101020307010101020203
:1000D60003020207010400000203010103010106F5
:1000E60001030501010601020102020501040000E7
:1000F60002020101030101040102010201070102DA
:1001060001020302020102020103020101020300CD
:1001160000020102010701010601010601010701B2
:1001260002050102060104000002010201020201A9
:100136000302030202010302020502020202040094
:100146000002050101050101010203070101010287
:10015600020302020302040000020000020601017B
:100166000701010102020701020202010202010166
:100176000203050101050103000001040202030256
:10018600020202020102020302040000020302024A
:10019600060204050202050202030201020201012F
:1001A600020400020101020102020201020102022E
:1001B6000102020205020203020400020203020215
:1001C6000602040502040302010202010102040000
:1001D6000001010201020202010201020201020201
:0701E60002070102060102FD
:03000B0002039954
:0D039900C28CB290850F8C85108AD28C32F8
:0202C9008F089C
:1002CB00E4F509E509C395085039E4F50DF50CF58E
:1002DB000BF50AE47F407E1FFDFCAB0DAA0CA90BAE
:1002EB00A80AC31203885017E50D2401F50DE43558
:1002FB000CF50CE4350BF50BE4350AF50A80D40547
:05030B000980C0C28C56
:0103100022CA
:0D03A600850F8C85108AD28CAF0E0202C923
:10031100E4F514750E01E50E6036E51490005F9367
:1003210075F007A4FFE51490005E932F14F5139068
:10033100002693F50FE51390004293F510E5149014
:10034100006093F50E74032514F5141203A680C6FC
:010351002289
:1001F90002000EE493A3F8E493A34003F68001F20E
:1002090008DFF48029E493A3F85407240CC8C33306
:10021900C4540F4420C8834004F456800146F6DFD5
:10022900E4800B0102040810204080900003E47E62
:10023900019360BCA3FF543F30E509541FFEE493CA
:10024900A360010ECF54C025E060A840B8E493A391
:10025900FAE493A3F8E493A3C8C582C8CAC583CABC
:10026900F0A3C8C582C8CAC583CADFE9DEE780BE74
:0100090000F6
:10038800EB9FF5F0EA9E42F0E99D42F0E89C45F0CB
:010398002242
:00000001FF
